:100000000C9434000C943E000C943E000C943E0082
:100010000C943E000C943E000C943E000C943E0068
:100020000C943E000C943E000C943E000C943E0058
:100030000C943E000C943E000C943E000C943E0048
:100040000C943E000C943E000C943E000C943E0038
:100050000C943E000C943E000C943E000C943E0028
:100060000C943E000C943E0011241FBECFEFD8E04C
:10007000DEBFCDBF0E9440000C9454000C940000E1
:1000800084B1816084B98BB180668BB985EA9EE0CA
:100090000197F1F700C000004D9902C08FEF85B9BC
:0C00A0004E99FACF15B8F8CFF894FFCFB6
:00000001FF
